S01C00004D4543483435385F46696E616C50726F6A6563742E737265632A
S113000080C000009EC000009CC0000006C7000025
S113001013C7000096C0000094C0000092C0000006
S113002090C000008EC000008CC000008AC0000098
S113003088C0000086C0000084C0000082C00000A8
S113004080C000007EC000007CC000007AC00000B8
S113005078C0000076C0000074C0000072C00000C8
S113006070C000006EC000006CC000006AC00000D8
S113007068C0000054C7000064C0000062C00000F3
S113008060C000005EC000005CC000005AC00000F8
S113009058C0000056C0000054C0000052C0000008
S11300A050C000004EC000004CC000004AC0000018
S11300B048C0000046C0000044C0000042C0000028
S11300C040C000003EC000003CC000003AC0000038
S11300D038C0000036C0000034C0000032C0000048
S11300E030C0000005A84CCDB2D44EB93836A902B0
S11300F00C50B9918688083CA6AAAA2ABE00000022
S1130100803F11241FBECFEFD1E2DEBFCDBF00E0A0
S11301100CBF13E0A0E0B2E0ECE2F7E100E00BBFBB
S113012002C007900D92A432B107D9F723E0A4E2EC
S1130130B3E001C01D92AD33B207E1F7C5D30C940F
S1130140940B5ECFAC01E1E8F0E080818B7F80838B
S113015080818260808380818160808380818F7EC2
S11301608083808188608083E0E8F0E080818D7FF7
S1130170808380818E7F808310928500109284001A
S11301808AEF90E0909389008093880020E030E02B
S113019007C096B3926096BBB19BFECF2F5F3F4FD3
S11301A024173507B4F3E1E8F0E080818D7F808384
S11301B080818E7F80830895F894EAE7F0E080815F
S11301C080688083808188608083ACE7B0E08C9114
S11301D080628C938C9180648C9378948081806409
S11301E0808308950F931F93CF93DF93C82F8111BA
S11301F01AC0CBE0D1E08FEF888388EC90E0A2DFD7
S1130200188288EC90E09EDFF4CF0BE011E08FEFD2
S1130210F80180838AEF90E095DFF80110828AEF7D
S113022090E090DFC150C111F0CFDF91CF911F91C9
S11302300F910895CF92DF92EF92FF926B017C01B0
S113024020E030E0A901EFD688231CF4C12CD12C86
S1130250760120E030E048EC52E4C701B6010E9488
S11302606209181644F40F2EC12CD12CF8ECEF2E91
S1130270F2E4FF2EF02D85B5877F85BD84B58260BD
S113028084BD84B5816084BD84B5806884BD84B533
S11302908F7B84BD85B58B7F85BD85B5826085BD2B
S11302A085B58E7F85BD20E030E048EC52E4C7017F
S11302B0B601BDD620E030E04FE753E40E94660962
S11302C01ED767BD16BC85B3826085BBFF90EF90D7
S11302D0DF90CF900895CBE0D1E080E188838DE773
S11302E090E030DF10E318838DE790E02BDF00E629
S11302F008838DE790E026DF0F2EF0ECFF2EF02D23
S1130300F8828DE790E01EDF80E888838DE790E037
S113031019DFF8828DE790E015DF08838DE790E020
S113032011DF18838DE790E00DDFD5CF87B1807F93
S113033087B988B1806288B988B18F7B88B982E037
S11303408A95F1F700C088B1806888B992E09A95DF
S1130350F1F700C086B18295807F92E09A95F1F71B
S113036000C098B19F7798B995E09A95F1F700008D
S113037098B1906898B992E09A95F1F700C096B157
S1130380807892E09A95F1F700C098B19F7798B978
S113039095E09A95F1F700008111D5CF88B18F7D52
S11303A088B987B18F6087B90895282F22952F7057
S11303B08F70611104C098B19F7B98B903C098B144
S11303C0906498B992E09A95F1F700C098B190685A
S11303D098B998B1907F922B98B995E09A95F1F7D6
S11303E0000098B19F7798B995E09A95F1F70000CD
S11303F098B1906898B998B1907F892B88B985E0B5
S11304008A95F1F7000088B18F7788B995E09A95BD
S1130410F1F700008BCF0895CF93C82F2FEF86E715
S113042091E0215080409040E1F700C0000087B186
S11304308F6087B987B1806887B987B1806487B9CD
S113044087B1806287B988B1807F88B988B18F7796
S113045088B988B18F7D88B988B18F7B88B900C08D
S113046000C0000088B1806888B988B1826088B90A
S113047025E02A95F1F7000088B18F7788B985E0E7
S11304808A95F1F7000052DF60E08C2F8C608DDFDD
S113049060E088E28ADFCF910895CF93DF93EC0187
S11304A003C061E082DF219688818111FACFDF9158
S11304B0CF910895EF92FF920F931F93CF93DF9301
S11304C000D01F921F92CDB7DEB77B01FE0131969B
S11304D025E0DF011D922A95E9F724E030E00EC003
S11304E06AE070E0D9D7E1E0F0E0EC0FFD1FE20F25
S11304F0F31F8083862F972F21503109009781F7AE
S1130500BFEFEB16FB0681F403C00F5F1F4F02C061
S113051000E010E0E1E0F0E0EC0FFD1FE00FF11F60
S11305202081222391F304C005E010E00E191F0975
S1130530992384F461E08DE238DF0CC0E1E0F0E05F
S1130540EC0FFD1FE00FF11F808161E0805D2DDF66
S11305500F5F1F4F053011058CF30F900F900F9014
S11305600F900F90DF91CF911F910F91FF90EF901B
S11305700895883228F46111806460E0806815CFA2
S11305800895FF920F931F93CF93DF93F82ED62FE6
S11305908A01C0E033C0DD2359F0809109028F5FE6
S11305A080930902853070F081E0809309020AC0CB
S11305B080910902815080930902811103C084E073
S11305C08093090280910902813021F486E38093AB
S11305D0080111C0823021F48EE2809308010BC01F
S11305E0833021F48DE28093080105C0843019F42E
S11305F085E380930801C801A5DDCF5FCF1558F2CC
S1130600D0930702DF91CF911F910F91FF9008952E
S1130610CF92DF92EF92FF920F931F93CF93DF93CA
S1130620082F8FEF800F843018F18CE085B9109279
S1130630080160E080E09DDF82E192E02EDF61E06E
S113064080E097DF83E292E028DF61E083E091DFDE
S11306508091080262E070E090E02CDF61E089E0C4
S113066088DF62E070E0802F90E024DF80E0BADD74
S11306701091070280910802081709F4E0C0813044
S113068059F4023009F454C0033009F453C004305F
S113069009F453C0D2E36BC0823059F4013009F439
S11306A04FC0033009F44EC0043009F44EC0D2E305
S11306B05EC0833059F4043009F44AC0013009F4AF
S11306C049C0023009F449C0D2E351C0843059F41E
S11306D0033009F445C0013009F444C0023009F480
S11306E044C0D2E344C08CE085B91092080160E0B4
S11306F080E03FDF84E392E0D0DE61E080E039DF38
S113070083E292E0CADE61E083E033DF8091080295
S113071062E070E090E0CEDE61E089E02ADF62E032
S113072070E0802F90E0C6DE80E05CDDD2E31FC085
S1130730D4E61DC0D2E311E01AC0D2E310E017C022
S1130740D4E615C0D2E310E012C0D2E311E00FC02A
S1130750D4E60DC0D2E310E00AC0D2E311E007C032
S1130760D4E605C0D2E311E002C0D2E310E0C0E059
S11307705FC06C2F70E0660F771F072E000C880B8C
S1130780990BF0D42BED3FE049E450E49FD56B0185
S11307907C016D2F70E080E090E0E4D49B01AC011B
S11307A0C701B60144D42BED3FE049EC5FE3D7D356
S11307B0F0D520E030E040EA50E488D520E030E095
S11307C040E151E4CCD3A0D4112359F09091090213
S11307D09F5F90930902953070F081E08093090245
S11307E00AC090910902915090930902911103C09B
S11307F084E08093090290910902913021F486E308
S11308008093080111C0923021F48EE28093080194
S11308100BC0933021F48DE28093080105C094301D
S113082019F485E380930801862F90E08BDCCF5F79
S1130830CD1708F49ECF1093070200930802DF91AE
S1130840CF911F910F91FF90EF90DF90CF9008957B
S1130850CF939FEF980F943030F5C82F83E090E04A
S113086042D6FC01C083128211822091260330916A
S11308702703232B71F0E0912403F0912503309793
S113088041F092838183909325038093240381E034
S11308900BC09093270380932603909325038093A2
S11308A0240381E001C080E0CF910895E091260304
S11308B0F091270380E090E004C001960180F2816A
S11308C0E02D3097D1F70895809110029091110294
S11308D0892B31F487EC91E09093110280931002FC
S11308E080910E0290910F02892B31F487E293E0FC
S11308F090930F0280930E0280910C0290910D024E
S1130900892B31F485EB93E090930D0280930C02D4
S11309108DB384608DBB8DB388608DBB80EA80937A
S113092069008FEF80930A0111B81AB884B98093D3
S1130930070183E071DD60E081E037DD60E080E0A5
S113094018DE85E492E0A9DD61E080E012DE86E550
S113095092E0A3DD44E150E061E08EE112DE80B17B
S11309608093310364E117C0C62FD0E0AE0161E08B
S113097081E007DEBE01DD0F880B990BF3D32DEC6C
S11309803CEC4CE85FE353D3BFD3683008F468E031
S113099080B1809331038091310382FDE5CF60E023
S11309A080E0E7DD87E692E078DD61E080E0E1DD8C
S11309B088E792E072DD88EC90E0C4DBFDDB60E068
S11309C070E082E892E436DC8FE085B985E090E05F
S11309D0B9DB809128038111CAC180B180933103AE
S11309E080910602882309F460C060E080E0C1DDE4
S11309F089E892E052DD61E080E0BBDD8AE992E0C3
S1130A004CDD60E085E0B5DD80912F0361E070E0AE
S1130A1090E050DD60E08FE0ACDD48DF61E070E045
S1130A2049DD61E08EE0A5DD20912E0380912D0348
S1130A3090E0820F911D20912C03820F911D209133
S1130A402B0362E070E0820F911D34DD8091260358
S1130A5090912703892BC9F060E085E08ADDE0915D
S1130A602603F0912703808161E070E090E022DDAD
S1130A7061E085E07EDDE0912403F091250380812F
S1130A8061E070E090E016DD0CC060E085E071DDAF
S1130A908BEA92E002DD61E085E06BDD8BEA92E0B7
S1130AA0FCDC1092060287E085B98091310381FD58
S1130AB018C0E0912603F0912703309709F486C00B
S1130AC0908180910802981709F480C08FE085B95D
S1130AD0E0912603F091270380819ADD87E085B9B0
S1130AE075C08091300381FD71C08091260390917F
S1130AF02703009709F46AC0FC012081213031F4F6
S1130B0020912E032F5F20932E0317C0223031F43F
S1130B1020912D032F5F20932D030FC0233031F438
S1130B2020912C032F5F20932C0307C0243029F439
S1130B3020912B032F5F20932B03FC012181328111
S1130B40309327032093260366D580912603909142
S1130B502703892BA1F061E085E00BDDE0912603FA
S1130B60F0912703808161E070E090E0A3DC60E015
S1130B708FE0FFDC9BDE61E070E09CDC12C0109231
S1130B8025031092240361E085E0F3DC8BEA92E014
S1130B9084DC60E08FE0EDDC61E070E080E090E018
S1130BA089DC61E08EE0E5DC20912E0380912D0349
S1130BB090E0820F911D20912C03820F911D2091B2
S1130BC02B0362E070E0820F911D74DC809131038D
S1130BD080FD8FC08091300380FF8BC080910A021A
S1130BE090910B0220911002309111028217930709
S1130BF020F481E080932F0339C020910E023091BC
S1130C000F028217930720F482E080932F032EC0F3
S1130C1020910C0230910D028217930720F483E097
S1130C2080932F0323C08130944020F484E0809388
S1130C302F031CC08CE085B91092080160E080E0AD
S1130C4098DC8DEA92E029DC61E080E092DC8EEBB6
S1130C5092E023DC61E08BE08CDC64E070E0809166
S1130C600A0290910B0226DC80E0BCDA80912F030B
S1130C70EFDD811112C08CE085B91092080160E0AB
S1130C8080E077DC8FEC92E008DC61E080E071DCEE
S1130C9080EE92E002DC80E0A5DA60E08FE069DCBF
S1130CA005DE61E070E006DC60E085E062DC8091F6
S1130CB02F0361E070E090E0FDDB60E087E059DC49
S1130CC064E070E080910A0290910B02F3DB61E032
S1130CD085E04FDCE0912603F0912703808161E0F9
S1130CE070E090E0E7DB81E094E090930B02809366
S1130CF00A02809132038823B1F18091310380FF8D
S1130D0032C080913503909136039C01220F331F2A
S1130D10220F331F80913303909134030024880FF2
S1130D20991F001C880F991F001C892F902D822B5E
S1130D30932B909338038093370320910A023091C8
S1130D400B028217930740F42091300320FF04C064
S1130D5090930B0280930A0210923203EAE7F0E0C8
S1130D6080818064808380913103809330038091FB
S1130D702A03882309F443C02091260330912703D2
S1130D80232B09F03CC08DB3877F8DBB8DB38B7F44
S1130D908DBB8CE085B91092080160E080E0E9DB4E
S1130DA081EF92E07ADB61E080E0E3DB82E093E0D4
S1130DB074DB61E081E0DDDB80912E0362E070E0B2
S1130DC090E078DB61E085E0D4DB80912D0362E084
S1130DD070E090E06FDB61E089E0CBDB80912C0375
S1130DE062E070E090E066DB61E08DE0C2DB809160
S1130DF02B0362E070E090E05DDB6DDAEACD8823DE
S1130E0009F4E7CD809129038111E3CD80EF80932C
S1130E100B0181E080932903DCCD1F920F920FB662
S1130E200F9211248F9381E080932A038F910F9066
S1130E300FBE0F901F9018951F920F920FB60F922E
S1130E4011240BB60F922F933F934F935F936F939D
S1130E507F938F939F93AF93BF93EF93FF934B999C
S1130E604BC08FE085B984E190E06CD981E090912A
S1130E702803911180E0809328034B9BFECF84E1EB
S1130E8090E060D960E080E074DB83E193E005DB0F
S1130E9061E080E06EDB82E093E0FFDA60E08EE008
S1130EA068DB04DD62E070E005DB61E081E061DBCA
S1130EB080912E0362E070E090E0FCDA61E085E06E
S1130EC058DB80912D0362E070E090E0F3DA61E09A
S1130ED089E04FDB80912C0362E070E090E0EADA75
S1130EE061E08DE046DB80912B0362E070E090E0EE
S1130EF0E1DA81E080930602FF91EF91BF91AF9117
S1130F009F918F917F916F915F914F913F912F911D
S1130F100F900BBE0F900FBE0F901F9018951F924D
S1130F200F920FB60F9211248F939F9380917800A4
S1130F3090E090933403809333038091790090E0A0
S1130F40909336038093350381E0809332039F911D
S1130F508F910F900FBE0F901F9018955058BB277C
S1130F60AA270ED075C166D130F06BD120F031F4D0
S1130F709F3F11F41EF45BC10EF4E095E7FB51C1F1
S1130F80E92F77D180F3BA176207730784079507AF
S1130F9018F071F49EF58FC10EF4E0950B2EBA2F64
S1130FA0A02D0B01B90190010C01CA01A00111246B
S1130FB0FF27591B99F0593F50F4503E68F11A1617
S1130FC0F040A22F232F342F4427585FF3CF4695A8
S1130FD037952795A795F0405395C9F77EF41F16CA
S1130FE0BA0B620B730B840BBAF09150A1F0FF0F94
S1130FF0BB1F661F771F881FC2F70EC0BA0F621F80
S1131000731F841F48F4879577956795B795F7956F
S11310109E3F08F0B3CF9395880F08F09927EE0F01
S1131020979587950895D9D008F481E008950CD058
S11310300FC107D140F0FED030F021F45F3F19F02A
S1131040F0C0511139C1F3C014D198F39923C9F3F5
S11310505523B1F3951B550BBB27AA2762177307BA
S1131060840738F09F5F5F4F220F331F441FAA1F6E
S1131070A9F333D00E2E3AF0E0E830D0915050402E
S1131080E695001CCAF729D0FE2F27D0660F771FDC
S1131090881FBB1F261737074807AB07B0E809F0BE
S11310A0BB0B802DBF01FF2793585F4F2AF09E3F53
S11310B0510568F0B6C000C15F3FECF3983EDCF325
S11310C0869577956795B795F7959F5FC9F7880FCC
S11310D0911D9695879597F90895E1E0660F771F1E
S11310E0881FBB1F621773078407BA0720F0621BAF
S11310F0730B840BBA0BEE1F88F7E095089504D0A8
S11311006894B111D9C00895BCD088F09F5790F06D
S1131110B92F9927B751A0F0D1F0660F771F881F18
S1131120991F1AF0BA95C9F712C0B13081F0C3D033
S1131130B1E00895C0C0672F782F8827B85F39F0D1
S1131140B93FCCF3869577956795B395D9F73EF477
S113115090958095709561957F4F8F4F9F4F08951F
S1131160E89409C097FB3EF490958095709561953D
S11311707F4F8F4F9F4F9923A9F0F92F96E9BB27F3
S11311809395F695879577956795B795F111F8CF6F
S1131190FAF4BB0F11F460FF1BC06F5F7F4F8F4FDA
S11311A09F4F16C0882311F096E911C0772321F0D0
S11311B09EE8872F762F05C0662371F096E8862F68
S11311C070E060E02AF09A95660F771F881FDAF7BF
S11311D0880F9695879597F90895990F0008550FEC
S11311E0AA0BE0E8FEEF16161706E807F907C0F0A9
S11311F012161306E407F50798F0621B730B840BB1
S1131200950B39F40A2661F0232B242B252B21F48A
S113121008950A2609F4A140A6958FEF811D811D2A
S1131220089597F99F6780E870E060E008959FEF64
S113123080EC089500240A94161617061806090669
S1131240089500240A941216130614060506089538
S1131250092E0394000C11F4882352F0BB0F40F4C0
S1131260BF2B11F460FF04C06F5F7F4F8F4F9F4F00
S1131270089557FD9058440F551F59F05F3F71F082
S11312804795880F97FB991F61F09F3F79F08795E9
S11312900895121613061406551FF2CF4695F1DF72
S11312A008C0161617061806991FF1CF8695710502
S11312B0610508940895E894BB2766277727CB0136
S11312C097F908958ADF08F48FEF08950BD0C0CF03
S11312D0B1DF28F0B6DF18F0952309F0A2CFA7CF2D
S11312E01124EACFC6DFA0F3959FD1F3950F50E008
S11312F0551F629FF001729FBB27F00DB11D639FC4
S1131300AA27F00DB11DAA1F649F6627B00DA11D69
S1131310661F829F2227B00DA11D621F739FB00D0F
S1131320A11D621F839FA00D611D221F749F33277F
S1131330A00D611D231F849F600D211D822F762F18
S11313406A2F11249F5750408AF0E1F088234AF015
S1131350EE0FFF1FBB1F661F771F881F9150504061
S1131360A9F79E3F510570F05CCFA6CF5F3FECF329
S1131370983EDCF3869577956795B795F795E7954D
S11313809F5FC1F7FE2B880F911D9695879597F95E
S113139008959F9305D00F9007FCEE5F28C047CFB8
S11313A070DFE8F3E894E0E0BB279F57F0F02AED04
S11313B03FE049EC06C0EE0FBB0F661F771F881F86
S11313C028F0B23A62077307840728F0B25A620B16
S11313D0730B840BE3959A9572F7803830F49A95E1
S11313E0BB0F661F771F881FD2F7904813C0EF9377
S11313F0E0FF06C0A2EA2AED3FE049EC5FEBC0DD66
S113140027DF0F90039401FC9058E4EEF0E00EC047
S11314109F3F31F0915020F4879577956795B79564
S1131420880F911D9695879597F908959F938F93AB
S11314307F936F93FF93EF939B01AC0147DFEF9191
S1131440FF9105D02F913F914F915F913FCFDF9353
S1131450CF931F930F93FF92EF92DF927B018C0146
S1131460689405C0DA2EEF013DDFFE01E894A591F2
S11314702591359145915591AEF3EF0181DDFE0142
S11314809701A801DA9479F7DF90EF90FF900F911C
S11314901F91CF91DF91089597FB072E16F40094C6
S11314A006D077FD08D00BD007FC05D03EF490950C
S11314B081959F4F0895709561957F4F0895AA1B5C
S11314C0BB1B51E107C0AA1FBB1FA617B70710F02B
S11314D0A61BB70B881F991F5A95A9F7809590955D
S11314E0BC01CD0108950F931F93CF93DF938230F6
S11314F0910510F482E090E0E0913B03F0913C030D
S113150020E030E0A0E0B0E0309719F14081518153
S11315100281138148175907C8F08417950769F4A5
S1131520109731F012960C93129713961C9327C0C0
S113153000933B0310933C0322C02115310519F09D
S11315404217530718F49A01BD01EF01DF01F801B6
S1131550DBCF21153105F9F0281B390B2430310577
S113156080F48A819B816115710521F0FB019383CD
S1131570828304C090933C0380933B03FE01329624
S113158044C0FE01E20FF31F81939193225031096D
S1131590398328833AC02091390330913A03232BAD
S11315A041F4209102023091030230933A032093D4
S11315B0390320910002309101022115310541F4D3
S11315C02DB73EB74091040250910502241B350B00
S11315D0E0913903F0913A03E217F307A0F42E1BCC
S11315E03F0B2817390778F0AC014E5F5F4F241783
S11315F0350748F04E0F5F1F50933A034093390369
S11316008193919302C0E0E0F0E0CF01DF91CF91AC
S11316101F910F910895CF93DF93009709F481C030
S1131620FC01329713821282A0913B03B0913C03D8
S1131630109781F420813181820F931F2091390307
S113164030913A032817390751F5F0933A03E093A0
S1131650390367C0ED0120E030E0CE17DF0740F426
S11316604A815B819E0141155105F1F0EA01F5CFF4
S1131670D383C28340815181840F951FC817D90732
S113168059F488819981840F951F029691838083F0
S11316908A819B81938382832115310529F4F093F8
S11316A03C03E0933B033DC0E901FB83EA8349919A
S11316B05991C40FD51FEC17FD0761F48081918106
S11316C0840F951F0296E90199838883828193810F
S11316D09B838A83E0E0F0E012968D919C911397AE
S11316E0009719F0FD01DC01F7CF8D919C911197C2
S11316F09D012E5F3F4F820F931F2091390330913C
S11317003A032817390769F4309729F410923C03F7
S113171010923B0302C013821282B0933A03A09347
S10F17203903DF91CF910895F894FFCFB6
S113172C00003D032000010104010104BE033E033B
S113173CC8014255434B4554205245512045525201
S113174C20200043423D20202044423D20202020E4
S113175C20202000535445505045522043415345BA
S113176C20455252002D2D494E495449414C495A59
S113177C494E472D2D002D2D2D2D2D4255434B45D6
S113178C542D2D2D2D2D002D5E2D2D2D2D2D2D5E1D
S113179C2D2D2D2D2D2D2D00454E44202020205057
S11317AC4155534520202020006C6173743D582D05
S11317BC232323232051443D23006E6578743D205C
S11317CC20736F727465643D2020004E00434C41BD
S11317DC53534946494552204552524F520066696B
S11317EC6E616C20414443203D2020202020005178
S11317FC5545554520414444204552524F522000F2
S113180C4E4F204655525448455220494E464F207F
S113181C0072616D70646F776E2E20202020202062
S113182C200061202020732020207720202062209B
S113183C2020005041555345442020717565756531
S107184C3D20200017
S9030000FC
